:100026004669727374206C6576656C2070617373B3
:10003600776F7264203A207869616F6A6965200D6E
:100046000A005365636F6E64617279207061737321
:10005600776F72642020203A200D0A0009312E2085
:1000660054657374200D0A0009322E206B6169668F
:100076006162616E79616E7A68656E200D0A0009AB
:10008600332E206B616964656E67200D0A000934A2
:100096002E206775616E64656E67200D0A0009354E
:1000A6002E206265696A696E67200D0A0009362E80
:1000B600207368616E67686169200D0A0009372E32
:1000C600206775616E677A686F75200D0A003C546B
:1000D6006573743E20436F6D6D616E642072656357
:1000E6006F676E6974696F6E2073756363656564A7
:1000F6006564200D0A003C6B6169666162616E7918
:10010600616E7A68656E3E20436F6D6D616E642028
:100116007265636F676E6974696F6E20737563636A
:100126006565646564200D0A003C6B616964656EF3
:10013600673E20436F6D6D616E64207265636F6705
:100146006E6974696F6E2073756363656564656453
:10015600200D0A003C6775616E64656E673E20433C
:100166006F6D6D616E64207265636F676E69746929
:100176006F6E20737563636565646564200D0A00A0
:100186003C6265696A696E673E20436F6D6D616E9C
:1001960064207265636F676E6974696F6E2073752C
:1001A60063636565646564200D0A003C7368616E6F
:1001B600676861693E20436F6D6D616E642072658C
:1001C600636F676E6974696F6E20737563636565C7
:1001D600646564200D0A003C6775616E677A686F16
:1001E600753E20436F6D6D616E64207265636F6747
:1001F6006E6974696F6E20737563636565646564A3
:10020600200D0A00506C656173652072652D696466
:10021600656E74696679207468652070617373779A
:100226006F72642021200D0A00506C656173652091
:10023600737065616B206F757420612070617373D4
:0A024600776F72642021200D0A007A
:060A7200011C00011B0045
:10040D00E4F509120A3012000612091B1209C0E4A4
:10041D00781CF67BFF7A0079261209E77BFF7A00BC
:10042D0079481209E77BFF7A0079621209E77BFFB1
:10043D007A00796E1209E77BFF7A0079851209E758
:10044D007BFF7A0079941209E77BFF7A0079A41279
:10045D0009E77BFF7A0079B31209E77BFF7A007910
:10046D00C31209E7781CE61460FA24F1601824DF42
:10047D0060F224317020781C7601120888EF70E448
:10048D00781C763180DE120A93781EEFF61206760E
:0C049D00E4781CF680CEE4781CF680C8E1
:100A3000B2C2120A5AB2C2120A5AB2C2120A5AB246
:0C0A4000C2120A5AB2C2120A5AB2C222F2
:100006007580FFE4F59075A0FF75B0FF75C0FF75AC
:0D00160092FFF591C2C3D289D2A8D2AF22C9
:0A0A670000007F057E49DEFEDFFC83
:010A71002262
:080A0C008F148E138D128C1162
:100A1400E4F515F516F517F518781174FF12027937
:0B0A2400EC4D4E4F6005120A6780EE9B
:010A2F0022A4
:0C0A5A007F117ED07D1BDDFEDEFCDFFA8C
:010A6600226D
:0300030002095C93
:10095C00C0E0C0F0C083C082C0D075D000C000C061
:10096C0001C002C003C004C005C006C0071205E1E7
:10097C00D007D006D005D004D003D002D001D000CF
:0B098C00D0D0D082D083D0F0D0E03279
:10067600EF7006751B01C2C222E51B6401707BF593
:100686001BD2C2EF24FE602224FE602A14603324AB
:10069600EF603B14604424E8604C242E70547BFFCA
:1006A6007A0079D41209E7D290227BFF7A0079FC8E
:1006B6001209E7D291227BFF7A01792F1209E7D23C
:1006C60092227BFF7A01795A1209E7C292227BFFB6
:1006D6007A0179861209E7D293227BFF7A0179B1F2
:1006E6001209E7D294227BFF7A0179DD1209E7D25B
:1006F60095227BFF7A02790A80067BFF7A02792FA0
:040706001209E722CB
:100365007869616F206A696500000000000000007F
:10037500000000006B61692066612062616E207972
:10038500616E207A68656E67646169206D612063BE
:100395006520736869000000000000006B6169203A
:1003A50064656E67000000000000000000000000AA
:1003B5006775616E2064656E6700000000000000CF
:1003C50000000000626569206A696E670000000030
:1003D50000000000000000007368616E672068611E
:1003E5006900000000000000000000006775616EF4
:1003F50067207A686F7500000000000000000000AB
:08040500000201040516172F87
:10091B00D2B57F017E007D007C00120A0CC2B57F30
:10092B00017E007D007C00120A0CD2B57F017E0097
:10093B007D007C00120A0CC2A17F017E007D007C31
:10094B0000120A0CD2A17F017E007D007C00020AFE
:01095B000C8F
:1004A9007F06120A887D357F17120A7D7F0A7E0032
:1004B9007D007C00120A0C7F06120A887D037F8961
:1004C900120A7D7F057E007D007C00120A0C7D43A7
:1004D9007FCF120A7D7F057E007D007C00120A0C09
:1004E9007D027FCB120A7D7D0A7F11120A7DE4FD10
:1004F9007F1E120A7D7D3F7F19120A7D7D487F1B71
:10050900120A7D7D1F7F1D120A7D7F0A7E007D00F4
:100519007C00120A0C7D047FCD120A7D7F057E00C6
:100529007D007C00120A0CE4FD7FB9120A7D7D4F23
:0C0539007FCF120A7D7DFF7F6F020A7DDC
:100829001204A9E4FD7FBD120A7D7D487F17120AD3
:100839007D7F0A7E007D007C00120A0C7D807F3C52
:10084900120A7D7D077F3E120A7D7DFF7F38120ADD
:100859007D7D077F3A120A7DE4FD7F40120A7D7D86
:10086900087F42120A7DE4FD7F44120A7D7D087FDC
:0F08790046120A7D7F017E007D007C00020A0C82
:1005E100E4F508C2A87F2B120A88781DA607E4FD4E
:1005F1007F29120A7DE4FD7F02120A7D781DE63013
:10060100E42D7FB2120A88EF642170237FBF120AA2
:1006110088BF351B7FBA120A888F08E508D394007A
:10062100400DE508D394045006781C7610800478B8
:100631001C7611E4FD7F2B120A7DE4FD7F1C120A5A
:100641007DE4FD7F29120A7DE4FD7F02120A7DE42B
:10065100FD7F2B120A7DE4FD7FBA120A7DE4FD7F46
:10066100BC120A7D7D017F08120A7DE4FD7F08121C
:040671000A7DD2A884
:010675002262
:10088800E4F50AF50BF50A120A997F327E007D001D
:100898007C00120A0C120545EF700280117F0A7E57
:1008A800007D007C00120A0C12070AEF7010120972
:1008B8001B7F327E007D007C00120A0C8005750BC0
:0E08C800018009050AE50AC3940540BBAF0B89
:0108D60022FF
:10099700E4F510F50F7FB2120A88BF210575100123
:1009A70080147F0A7E007D007C00120A0C050FE58B
:0809B7000FC3940A40DFAF10EA
:0109BF002215
:030A990002082927
:10070A00C2A87D557F35120A7D7D097F1C120A7D9C
:10071A007D207FBD120A7D7D017F08120A7D7F013F
:10072A007E007D007C00120A0CE4FD7F08120A7D1F
:10073A007F017E007D007C00120A0C120997EF707F
:10074A0002FF227D0B7F1C120A7D7DFF7FB2120AF7
:10075A007D7F017E007D007C00120A0C7D067F37BA
:10076A00120A7D7F017E007D007C00120A0C7D0644
:10077A007F37120A7D7F057E007D007C00120A0CFD
:10078A007D107F29120A7DE4FD7FBD120A7DD2A861
:03079A007F0122BA
:10054500750D01E4F50C120997EF7005F50D02051F
:10055500DEE50C90040593FD7FC1120A7DE4FD7F65
:10056500C3120A7D7D047F08120A7D7F017E007D0E
:10057500007C00120A0CE4FD7F08120A7D7F017ED3
:10058500007D007C00120A0CE4F50EE50C75F014F4
:10059500A42465F582E43403F583E582250EF5820E
:1005A500E43583F583E493FD600E7F05120A7D052E
:1005B5000EE50EC3941440D3AD0E7FB9120A7D7DAE
:1005C500FF7FB2120A7D7D047F37120A7D050CE597
:0B05D5000CC39408500302054BAF0D4F
:0105E00022F8
:060A93007FC5120A882253
:0B0A7D00908100EFF0908000EDF0226F
:0B0A8800908100EFF0908000E0FF2262
:040A780002192580BA
:1009C000759850758920AE19AF1AAB07AA06E4F9DD
:1009D000F8FF7EE1FDFC1208D71202698F8B8F8D24
:0709E000D28ED2ACD2AF228F
:03002300020A9C32
:010A9C003227
:0E0A4C00C2ACC2998F993099FDC299D2AC22EA
:1009E7008B0A8A0B890CAB0AAA0BA90C120250605E
:1009F70013050CE50C7002050B14F9120250FF12D7
:050A07000A4C80E22210
:0300000002079D57
:0C079D00787FE4F6D8FD75811E0207E4A9
:10025000BB010689828A83E0225002E722BBFE02AC
:09026000E32289828A83E49322DF
:1008D700C2D5E830E70FB2D5E4C39BFBE49AFAE44C
:1008E70099F9E498F8EC30E717B2D512090D12021E
:1008F700D3E4C39BFBE49AFAE499F9E498F88003FC
:100907001202D330D50DE4C39FFFE49EFEE49DFDA4
:04091700E49CFC223E
:0E026900C3E49FFFE49EFEE49DFDE49CFC22A6
:100277007401FF3395E0FEFDFC080808E6CF2FF672
:1002870018E6CE3EF618E6CD3DF618E6CC3CF6224B
:1007A90002040DE493A3F8E493A34003F68001F255
:1007B90008DFF48029E493A3F85407240CC8C33351
:1007C900C4540F4420C8834004F456800146F6DF20
:1007D900E4800B0102040810204080900A72E47E34
:1007E900019360BCA3FF543F30E509541FFEE49315
:1007F900A360010ECF54C025E060A840B8E493A3DC
:10080900FAE493A3F8E493A3C8C582C8CAC583CA06
:10081900F0A3C8C582C8CAC583CADFE9DEE780BEBE
:010A7C000079
:1002970075F008758200EF2FFFEE33FECD33CDCC1E
:1002A70033CCC58233C5829BED9AEC99E5829840A1
:1002B7000CF582EE9BFEED9AFDEC99FC0FD5F0D67E
:1002C700E4CEFBE4CDFAE4CCF9A88222B800C1B9A8
:1002D7000059BA002DEC8BF084CFCECDFCE5F0CBE6
:1002E700F97818EF2FFFEE33FEED33FDEC33FCEB1F
:1002F70033FB10D703994004EB99FB0FD8E5E4F9DA
:10030700FA227818EF2FFFEE33FEED33FDEC33FCC6
:10031700C933C910D7059BE99A4007EC9BFCE99ABA
:10032700F90FD8E0E4C9FAE4CCFB2275F010EF2FFF
:10033700FFEE33FEED33FDCC33CCC833C810D707FF
:100347009BEC9AE899400AED9BFDEC9AFCE899F83A
:0E0357000FD5F0DAE4CDFBE4CCFAE4C8F922CD
:00000001FF
