:100AC5004552524F52203A2053797374656D206513
:100AD50072726F722021200D0A004552524F52202A
:100AE5003A20496620796F752068617665206265D0
:100AF500656E20696E20746869732073746174650E
:100B05002C20636865636B20746865206861726476
:100B150077617265206572726F7220696E205B461F
:100B2500554E5D2052756E415352202E200D0A0000
:100B35004552524F52203A2052756E41535220660B
:100B450061696C75652021200D0A00544950203AD1
:100B5500204153522066696E6973682021204669D9
:100B65006E6420726573756C742021200D0A005423
:100B75004950203A2043616E27742066696E6420CF
:0C0B8500726573756C742021200D0A004D
:0312EA00010D00F3
:100F1200E4780FF21212B312000612116212124298
:100F2200E4780DF6780BF21209F6780DE6601F14DC
:100F320060F824F1603124DF70467BFF7A0A79C5BC
:100F42001211DE7BFF7A0A79DF1211DE802C780D16
:100F520076011210C8EF70D27BFF7A0B793512112D
:100F6200DE780D763180C37BFF7A0B79501211DE69
:100F7200121316780FEFF6120F91E4780DF680AA8D
:0F0F82007BFF7A0B79741211DEE4780DF6809BF9
:10116200D2B57F017E007D007C00121291C2B57F54
:10117200017E007D007C00121291D2B57F017E00BB
:101182007D007C00121291C2A17F017E007D007C55
:1011920000121291D2A17F017E007D007C0002121A
:0111A20091BB
:100C40007F061213007D357F171212F57F0A7E0092
:100C50007D007C001212917F061213007D037F89B4
:100C60001212F57F057E007D007C001212917D43FB
:100C70007FCF1212F57F057E007D007C001212915D
:100C80007D027FCB1212F57D0A7F111212F5E4FD71
:100C90007F1E1212F57D3F7F191212F57D487F1BD2
:100CA0001212F57D1F7F1D1212F57F0A7E007D0056
:100CB0007C001212917D047FCD1212F57F057E001B
:100CC0007D007C00121291E4FD7FB91212F57D4F78
:0C0CD0007FCF1212F57DFF7F6F0212F53E
:10106900120C40E4FD7FBD1212F57D487F17121264
:10107900F57F0A7E007D007C001212917D807F3C05
:101089001212F57D077F3E1212F57DFF7F3812128D
:10109900F57D077F3A1212F5E4FD7F401212F57DC6
:1010A900087F421212F5E4FD7F441212F57D087F94
:0F10B900461212F57F017E007D007C000212912D
:100CDC00E4780EF2C2A87F2B121300780EA607E45C
:100CEC00FD7F291212F5E4FD7F021212F5780EE653
:100CFC0030E42C7FB2121300EF642170227FBF12FC
:100D0C001300BF351A7FBA121300780EEFF2D3948A
:100D1C0000400CE2D394045006780D7610800478D1
:100D2C000D7611E4FD7F2B1212F5E4FD7F1C1212DF
:100D3C00F5E4FD7F291212F5E4FD7F021212F5E4B1
:100D4C00FD7F2B1212F5E4FD7FBA1212F5E4FD7F44
:100D5C00BC1212F57D017F081212F5E4FD7F08121A
:040D6C0012F5D2A802
:010D70002260
:1010C800E47810F208F218F212131C7F327E007DC9
:1010D800007C00121291120B91EF700280117F0AAE
:1010E8007E007D007C00121291120D71EF701012BB
:1010F80011627F327E007D007C0012129180077899
:10110800117401F2800B7810E204F2E2C3940540F6
:05111800B77811E2FFB1
:01111D0022AF
:10121200E47816F218F27FB2121300BF2107781693
:101222007401F280167F0A7E007D007C001212910A
:0F1232007815E204F2E2C3940A40DB7816E2FF7B
:01124100228A
:03131C0002106953
:100D7100C2A87D557F351212F57D097F1C1212F52F
:100D81007D207FBD1212F57D017F081212F57F01D2
:100D91007E007D007C00121291E4FD7F081212F5A5
:100DA1007F017E007D007C00121291121212EF7001
:100DB10002FF227D0B7F1C1212F57DFF7FB2121202
:100DC100F57F017E007D007C001212917D067F3748
:100DD1001212F57F017E007D007C001212917D06CA
:100DE1007F371212F57F057E007D007C0012129183
:100DF1007D107F291212F5E4FD7FBD1212F5D2A8F4
:030E01007F01224C
:100B910078137401F2E418F2121212EF700678134E
:100BA100F2020C3B7812E29007CE93FD7FC1121244
:100BB100F5E4FD7FC31212F57D047F081212F57F63
:100BC100017E007D007C00121291E4FD7F0812126B
:100BD100F57F017E007D007C00121291E47814F211
:100BE1007814E2FFC39414502C7812E275F014A427
:100BF1002416F582E5F03406F583E5822FF582E4CB
:100C01003583F583E493FD600C7F051212F57814AA
:100C1100E204F280CB7814E2FD7FB91212F57DFF78
:100C21007FB21212F57D047F371212F57812E204B9
:0E0C3100F2E2C394165003020B997813E2FF0F
:010C3F002292
:061316007FC51213002246
:0B12F500908100EFF0908000EDF022EF
:0B130000908100EFF0908000E0FF22E1
:1007E4003D3D3D3D3D3D3D3D3D3D3D3D3D3D3D3D35
:1007F4003D3D3D3D3D3D3D3D3D3D3D3D3D3D3D3D25
:100804003D3D3D3D3D3D3D3D0D0A003D3D3D3D3DB4
:100814003D3D3D3D3D204C44563720566F69636550
:10082400205072696E7472203D3D3D3D3D3D3D3D1D
:100834003D3D3D0D0A004669727374206C65766512
:100844006C2070617373776F7264203A2025730D86
:100854000A005365636F6E6461727920706173730B
:10086400776F72642020203A200D0A002020202077
:1008740025642E20002573200D0A00544950203A87
:10088400205265636F676E697A656420636F64657F
:1008940020EFBC9A0D0A0025640D0A004552524F00
:1008A40052203A2043616E2774207265636F676E2D
:1008B400697A65642021200D0A0000000000000010
:1008C4000000000000000000000000000000000024
:1008D4000000000000000000000000000000000014
:1008E4000000000000000000000000000000000004
:1008F40000000000000000000000000000000000F4
:1009040000000000000000000000000000000000E3
:0E0914000000000000000000000000000000D5
:0312ED008100007D
:1009F600E47810F2087C007DFE7BFF7A0879BEFE63
:100A06007F321204517BFF7A0779E41211DE7BFFF5
:100A16007A08790F1211DE78AB74FFF2087408F2C7
:100A260008743AF20874FFF2087406F2087416F2B3
:100A36007BFE7A0079111200827BFE7A0079111210
:100A460011DE7BFF7A0879561211DE78107401F2F6
:100A56007810E2FFC39416506578AB74FFF2087401
:100A660008F2087470F208E4F208EFF27BFE7A00EE
:100A760079111200827BFE7A0079111211DE78ABB1
:100A860074FFF2087408F2087479F27810E275F0CF
:100A960014A42416F9740635F0FA78AE74FFF20839
:100AA600EAF208E9F27BFE7A0079111200827BFEF7
:0E0AB6007A0079111211DE7810E204F28092BB
:010AC400220F
:1012B300B2C21212DDB2C21212DDB2C21212DDB21A
:0C12C300C21212DDB2C21212DDB2C22251
:100006007580FFE4F59075A0FF75B0FF75C0FF75AC
:0D00160092FFF591C2C3D289D2A8D2AF22C9
:0A130B0000007F057E49DEFEDFFCD6
:0113150022B5
:0512910078171204BEF5
:10129600E4781BF208F208F208F2781774FF1204D9
:0C12A600A0EC4D4E4F600512130B80EEC3
:0112B2002219
:0C12DD007F117ED07D1BDDFEDEFCDFFA01
:0112E90022E2
:030003000211A344
:1011A300C0E0C0F0C083C082C0D075D000C000C012
:1011B30001C002C003C004C005C006C007120CDC96
:1011C300D007D006D005D004D003D002D001D00080
:0B11D300D0D0D082D083D0F0D0E0322A
:040F91007810EFF2F3
:100F9500087C007DFE7BFF7A0879F07E007F3212A7
:100FA50004517BFF7A08797F1211DE78AB74FFF26A
:100FB500087408F208749BF27810E278AEF27BFEB2
:100FC5007A0079111200827BFE7A0079111211DE06
:100FD50078007401F27810E2FFC394145010780B76
:100FE500E22401F8EFF2780BE204F20209227BFF1A
:070FF5007A0879A01211DE59
:010FFC0022D2
:100616006875616E2078696E670000000000000052
:10062600000000006B61692066612062616E2079BE
:10063600616E207A68656E67646169206D6120630A
:100646006520736869000000000000006B616F2080
:100656006265690000000000000000000000000064
:1006660073616F206D69616F00000000000000007B
:100676000000000079690000000000000000000092
:10068600000000000000000065720000000000008D
:1006960000000000000000000000000073616E0012
:1006A6000000000000000000000000000000000044
:1006B6007369000000000000000000000000000058
:1006C6000000000077750000000000000000000038
:1006D60000000000000000006C69750000000000CA
:1006E600000000000000000000000000716900002A
:1006F60000000000000000000000000000000000F4
:100706006261000000000000000000000000000020
:10071600000000006A69750000000000000000008B
:10072600000000000000000073686900000000007F
:100736000000000000000000000000006261690087
:1007460000000000000000000000000000000000A3
:100756007169616E000000000000000000000000EA
:100766000000000077616E0000000000000000003D
:1007760000000000000000007A68616E670000005B
:100786000000000000000000000000007965000085
:100796000000000000000000000000000000000053
:1007A6006369000000000000000000000000000077
:1007B600000000006A6965736875000000000000AB
:1007C6000000000000000000000201040506070802
:0E07D600090A0B0C0E0F10111213141516FF4A
:100E90003C4C445637205245473E00256400200014
:100EA0003C2F4C445637205245473E0D0A00000067
:100EB0000000000000000000000000000000000032
:100EC0000000000000000000000000000000000022
:100ED0000000000000000000000000000000000012
:100EE0000000000000000000000000000000000002
:100EF00000000000000000000000000000000000F2
:100F000000000000000000000000000000000000E1
:020F10000000DF
:0412F000820C2580C7
:10124200759850758920780CE2FE08E2FBAA06E444
:10125200F9F8FF7EE1FDFC12111E1204908F8B8FB4
:081262008DD28ED2ACD2AF2276
:0300230002131FA6
:01131F00329B
:0E12CF00C2ACC2998F993099FDC299D2AC225F
:1011DE0078A8EBF208EAF208E9F278A8E2FB08E256
:1011EE00FA08E2F9120477601A78A8E2FB0808E21E
:1011FE00F92401F218E2FA3400F2120477FF121207
:04120E00CF80D72294
:10092200E47843F2087C007DFE7BFF7A0E79AEFE0E
:100932007F3212045178767C007DFE7BFF7A0E793D
:10094200E07E007F3212045178AB74FFF208740E1D
:10095200F2087490F27BFE7A007976120FFDE47849
:1009620043F2780BE2FF7843E2FEC39F506378AB19
:1009720074FFF208740EF208749BF274012EF8E20E
:1009820078AEF27BFE7A00794412008278AB74FE74
:10099200F2087400F2087444F27BFE7A007976124F
:1009A2000FFD7843E22401FFE433FE780BE26F701F
:1009B20001EE601678AB74FFF208740EF208749EB2
:1009C200F27BFE7A007976120FFD7843E204F28020
:1009D20091E4780BF278AB74FFF208740EF20874AB
:1009E200A0F27BFE7A007976120FFD7BFE7A007907
:0409F200760211DE9A
:03000000020E04E9
:0C0E0400787FE4F6D8FD758121020E4BCA
:10038100E709F608DFFA8046E709F208DFFA803E5E
:1003910088828C83E709F0A3DFFA8032E309F6084B
:1003A100DFFA8078E309F208DFFA807088828C83B3
:1003B100E309F0A3DFFA806489828A83E0A3F60867
:1003C100DFFA805889828A83E0A3F208DFFA804C41
:1003D10080D280FA80C680D4806980F28033801018
:1003E10080A680EA809A80A880DA80E280CA803381
:1003F10089828A83ECFAE493A3C8C582C8CCC583F9
:10040100CCF0A3C8C582C8CCC583CCDFE9DEE780C8
:100411000D89828A83E493A3F608DFF9ECFAA9F047
:10042100EDFB2289828A83ECFAE0A3C8C582C8CC9D
:10043100C583CCF0A3C8C582C8CCC583CCDFEADEB6
:10044100E880DB89828A83E493A3F208DFF980CC18
:1004510088F0EF60010E4E60C388F0ED2402B40411
:100461000050B9F582EB2402B4040050AF232345B8
:0604710082239003D17309
:10047700BB010689828A83E0225002E722BBFE0283
:09048700E32289828A83E49322B6
:10111E00C2D5E830E70FB2D5E4C39BFBE49AFAE4FC
:10112E0099F9E498F8EC30E717B2D512115412057C
:10113E0045E4C39BFBE49AFAE499F9E498F880033A
:10114E0012054530D50DE4C39FFFE49EFEE49DFDE0
:04115E00E49CFC22EF
:0E049000C3E49FFFE49EFEE49DFDE49CFC227D
:10049E007401FF3395E0FEFDFC080808E2CF2FF251
:1004AE0018E2CE3EF218E2CD3DF218E2CC3CF2223A
:0C04BE00ECF208EDF208EEF208EFF2227A
:10002600E50824ABF8E205082278A830070278AB89
:10003600E475F0011205D70204772000EB7F2ED27B
:10004600008018EF540F2490D43440D4FF30040BB2
:10005600EF24BFB41A0050032461FFE509600215BE
:1000660009050CE50C7002050B30070D78A8E47540
:10007600F0011205D7EF0204F702126A7403D207E1
:100086008003E4C207F50878A81205E7E4F509F548
:100096000BF50CE50960077F2012006180F5750AF3
:1000A600FFC201C200C202C203C205C206C20812D2
:1000B600002FFF700D3007057F00120072AF0CAEE7
:1000C6000B22B4255FC2D5C20412002FFF24D0B480
:1000D6000A00501A75F00A780930D50508B6FF01EE
:1000E60006C6A426F620D5047002D20380D924CFF2
:1000F600B41A00EF5004C2E5D204020271D20180A4
:10010600C6D20080C0D20280BCD2D580BAD20580C9
:10011600B47F201200612002077401B5090040F186
:10012600120026FF120061020099D208D2068095BD
:10013600120026FB120026FA120026F94A4B700618
:1001460079427A037BFF20022EE509602A7E008E23
:10015600827583001204CA60060EEE650A70F0C24C
:10016600D5EBC0E0EAC0E0E9C0E0EE1202B8D0E0AC
:10017600F9D0E0FAD0E0FB120477FF60AAEBC0E00A
:10018600EAC0E0E9C0E0120061D0E02401F9D0E065
:100196003400FAD0E0FBE50A0460DCD50AD9808792
:1001A6007BFF7A0279B4D202809C791080027908AA
:1001B600C206C2088008D2D5790A8004790AC2D557
:1001C600E50A047002F50AE4FAFDFEFF120026FCB9
:1001D6007B08200113120026FD7B1030000A120056
:1001E60026FE120026FF7B20EC3382D592D55013D3
:1001F600C3E43000069FFFE49EFEE42001039DFD5C
:10020600E49CFCE4CBF8C201EC700CCFCECDCCE87C
:1002160024F8F870F38017C3EF33FFEE33FEED33A7
:10022600FDEC33FCEB33FB994002FB0FD8E9EB30D6
:100236000105F8D0E0C448B201C0E00AEC4D4E4FCB
:1002460078207B0070C2EAB50A0040BCC0E012020A
:10025600BAD0F0D0E0200104C4C0E0C4B201C0F0BE
:1002660012004AD0F0D5F0EB0200991205F00136E3
:100276005301B05801074C01034201B44F01BC447D
:1002860001BC49011C4301C25501A64601A6450110
:01029600A6C1
:1002970047036250010B2D010F2E01322B0113234F
:1002A700013020034B2A00CB480000012A3F3F3F83
:1002B70000790AA2D5200314300509B910020404F5
:1002C700B9080104A2D52006025001042002689251
:1002D70002B509005034C0E07F203003197F30A2F7
:1002E7000272067205500F120311C202C206C2053E
:1002F700C2087F30800F300503E9C0E0120061308B
:100307000503D0E0F9D0E0B509CC3005177F30B947
:10031700100C1200617F583004077F788003B908FA
:10032700031200613002057F2D0200617F20200843
:10033700F87F2B2006F322920280CF286E756C6C13
:100347002900D2011200263001F8C201780930D500
:100357000108F60200CB2D5043495812002624030A
:10036700B405004001E490035D93120052743A1201
:0A0377000052D2037509040201B020
:100FFD0078A8EBF208EAF208E9F278AEEBF208EA2B
:10100D00F208E9F278A8E2FB0808E2F92401F218E7
:10101D00E2FA3400F212047770EA78AAE224FFF2C1
:10102D0018E234FFF278ABE2FB0808E2F92401F292
:10103D0018E2FA3400F2120477FF78A8E2FB0808F0
:10104D00E2F92401F218E2FA3400F2EF1204F7701B
:0C105D00D478AEE2FB08E2FA08E2F922C7
:100E1000020F12E493A3F8E493A34003F68001F2D7
:100E200008DFF48029E493A3F85407240CC8C333E3
:100E3000C4540F4420C8834004F456800146F6DFB2
:100E4000E4800B01020408102040809012EAE47E46
:100E5000019360BCA3FF543F30E509541FFEE493A7
:100E6000A360010ECF54C025E060A840B8E493A36E
:100E7000FAE493A3F8E493A3C8C582C8CAC583CA99
:100E8000F0A3C8C582C8CAC583CADFE9DEE780BE51
:0112F40000F9
:1004CA00BB010CE58229F582E5833AF583E02250E7
:1004DA0006E92582F8E622BBFE06E92582F8E22231
:0D04EA00E58229F582E5833AF583E493224B
:1004F700BB010689828A83F0225002F722BBFE01E4
:02050700F322DD
:1005090075F008758200EF2FFFEE33FECD33CDCCA9
:1005190033CCC58233C5829BED9AEC99E58298402C
:100529000CF582EE9BFEED9AFDEC99FC0FD5F0D609
:10053900E4CEFBE4CDFAE4CCF9A88222B800C1B933
:100549000059BA002DEC8BF084CFCECDFCE5F0CB71
:10055900F97818EF2FFFEE33FEED33FDEC33FCEBAA
:1005690033FB10D703994004EB99FB0FD8E5E4F965
:10057900FA227818EF2FFFEE33FEED33FDEC33FC52
:10058900C933C910D7059BE99A4007EC9BFCE99A46
:10059900F90FD8E0E4C9FAE4CCFB2275F010EF2F8B
:1005A900FFEE33FEED33FDCC33CCC833C810D7078B
:1005B9009BEC9AE899400AED9BFDEC9AFCE899F8C6
:0E05C9000FD5F0DAE4CDFBE4CCFAE4C8F92259
:1005D700FAE2FB0808E2F925F0F218E2CA3AF22239
:0905E700EBF208EAF208E9F22245
:1005F000D083D082F8E4937012740193700DA3A39A
:1006000093F8740193F5828883E4737402936860AD
:06061000EFA3A3A380DFAD
:10126A00EFB40A07740D121275740A309811A8990E
:10127A00B8130CC2983098FDA899C298B811F630E4
:07128A0099FDC299F59922BC
:00000001FF
