:100AFE004552524F52203A2053797374656D2065DA
:100B0E0072726F722021200D0A004552524F5220F0
:100B1E003A20496620796F75206861766520626596
:100B2E00656E20696E2074686973207374617465D4
:100B3E002C20636865636B2074686520686172643D
:100B4E0077617265206572726F7220696E205B46E6
:100B5E00554E5D2052756E415352202E200D0A00C7
:100B6E004552524F52203A2052756E4153522066D2
:100B7E0061696C75652021200D0A00544950203A98
:100B8E00204153522066696E6973682021204669A0
:100B9E006E6420726573756C742021200D0A0054EA
:100BAE004950203A2043616E27742066696E642096
:0C0BBE00726573756C742021200D0A0014
:03135100010D008B
:100FE500E4780FF212131A1200061211C91212A98F
:100FF500E4780DF6780BF2120A2F780DE6601F14CF
:1010050060F824F1603124DF70467BFF7A0A79FEAF
:101015001212457BFF7A0B7918121245802C780D38
:10102500760112112FEF70D27BFF7A0B796E1212B7
:1010350045780D763180C37BFF7A0B79891212458D
:1010450012137D780FEFF6120D15E4780DF680AAD0
:0F1055007BFF7A0B79AD121245E4780DF6809B84
:1011C900D2B57F017E007D007C001212F8C2B57F86
:1011D900017E007D007C001212F8D2B57F017E00ED
:1011E9007D007C001212F8C2A17F017E007D007C87
:1011F900001212F8D2A17F017E007D007C0002124C
:01120900F8EC
:100C79007F061213677D357F1712135C7F0A7E008A
:100C89007D007C001212F87F061213677D037F89AD
:100C990012135C7F057E007D007C001212F87D43F3
:100CA9007FCF12135C7F057E007D007C001212F855
:100CB9007D027FCB12135C7D0A7F1112135CE4FD68
:100CC9007F1E12135C7D3F7F1912135C7D487F1BC9
:100CD90012135C7D1F7F1D12135C7F0A7E007D004D
:100CE9007C001212F87D047FCD12135C7F057E0013
:100CF9007D007C001212F8E4FD7FB912135C7D4F70
:0C0D09007FCF12135C7DFF7F6F02135C34
:1010D000120C79E4FD7FBD12135C7D487F1712135B
:1010E0005C7F0A7E007D007C001212F87D807F3CD0
:1010F00012135C7D077F3E12135C7DFF7F38121355
:101100005C7D077F3A12135CE4FD7F4012135C7D27
:10111000087F4212135CE4FD7F4412135C7D087F5C
:0F1120004612135C7F017E007D007C000212F8F6
:100DAF00E4780EF2C2A87F2B121367780EA607E421
:100DBF00FD7F2912135CE4FD7F0212135C780EE6AF
:100DCF0030E42C7FB2121367EF642170227FBF12C1
:100DDF001367BF351A7FBA121367780EEFF2D394E9
:100DEF0000400CE2D394045006780D7610800478FE
:100DFF000D7611E4FD7F2B12135CE4FD7F1C1213A3
:100E0F005CE4FD7F2912135CE4FD7F0212135CE4A6
:100E1F00FD7F2B12135CE4FD7FBA12135CE4FD7FA0
:100E2F00BC12135C7D017F0812135CE4FD7F081276
:040E3F00135CD2A8C6
:010E4300228C
:10112F00E47810F208F218F21213837F327E007DFA
:10113F00007C001212F8120BCAEF700280117F0AA6
:10114F007E007D007C001212F8120E44EF70101218
:10115F0011C97F327E007D007C001212F880077863
:10116F00117401F2800B7810E204F2E2C39405408F
:05117F00B77811E2FF4A
:011184002248
:10127900E47816F218F27FB2121367BF21077816C5
:101289007401F280167F0A7E007D007C001212F83C
:0F1299007815E204F2E2C3940A40DB7816E2FF14
:0112A8002223
:031383000210D085
:100E4400C2A87D557F3512135C7D097F1C12135C8B
:100E54007D207FBD12135C7D017F0812135C7F012E
:100E64007E007D007C001212F8E4FD7F0812135C02
:100E74007F017E007D007C001212F8121279EF705F
:100E840002FF227D0B7F1C12135C7DFF7FB21213C5
:100E94005C7F017E007D007C001212F87D067F37A6
:100EA40012135C7F017E007D007C001212F87D0627
:100EB4007F3712135C7F057E007D007C001212F8E0
:100EC4007D107F2912135CE4FD7FBD12135CD2A850
:030ED4007F012279
:100BCA0078137401F2E418F2121279EF70067813AE
:100BDA00F2020C747812E29007CE93FD7FC11213D1
:100BEA005CE4FD7FC312135C7D047F0812135C7FF3
:100BFA00017E007D007C001212F8E4FD7F081213CA
:100C0A005C7F017E007D007C001212F8E47814F209
:100C1A007814E2FFC39414502C7812E275F014A4ED
:100C2A002416F582E5F03406F583E5822FF582E491
:100C3A003583F583E493FD600C7F0512135C781409
:100C4A00E204F280CB7814E2FD7FB912135C7DFFD7
:100C5A007FB212135C7D047F3712135C7812E204B0
:0E0C6A00F2E2C394165003020BD27813E2FF9D
:010C78002259
:06137D007FC51213672278
:0B135C00908100EFF0908000EDF02287
:0B136700908100EFF0908000E0FF227A
:1007E4003D3D3D3D3D3D3D3D3D3D3D3D3D3D3D3D35
:1007F4003D3D3D3D3D3D3D3D3D3D3D3D3D3D3D3D25
:100804003D3D3D3D3D3D3D3D0D0A003D3D3D3D3DB4
:100814003D3D3D3D3D204C44563720566F69636550
:10082400205072696E7472203D3D3D3D3D3D3D3D1D
:100834003D3D3D0D0A004669727374206C65766512
:100844006C2070617373776F7264203A2025730D86
:100854000A005365636F6E6461727920706173730B
:10086400776F72642020203A200D0A002020202077
:1008740025642E20002573200D0A00544950203A87
:10088400205265636F676E697A656420636F64657F
:1008940020EFBC9A0D0A0025640D0A00544950202B
:1008A4003A2053797374656D2077616B6575702098
:1008B40021200D0A00544950203A205265636F6785
:1008C4006E697A6564206C697374206F7665722032
:1008D40021200D0A004552524F52203A2043616EA6
:1008E4002774207265636F676E697A6564202120BE
:1008F4000D0A0000000000000000000000000000DD
:1009040000000000000000000000000000000000E3
:1009140000000000000000000000000000000000D3
:1009240000000000000000000000000000000000C3
:1009340000000000000000000000000000000000B3
:1009440000000000000000000000000000000000A3
:07095400000000000000009C
:0313540081000015
:100A2F00E47810F2087C007DFE7BFF7A0879F7FEF0
:100A3F007F321204517BFF7A0779E41212457BFF54
:100A4F007A08790F12124578AB74FFF2087408F226
:100A5F0008743AF20874FFF2087406F2087416F27A
:100A6F007BFE7A0079111200827BFE7A00791112D7
:100A7F0012457BFF7A08795612124578107401F2ED
:100A8F007810E2FFC39416506578AB74FFF20874C8
:100A9F0008F2087470F208E4F208EFF27BFE7A00B5
:100AAF0079111200827BFE7A00791112124578AB10
:100ABF0074FFF2087408F2087479F27810E275F096
:100ACF0014A42416F9740635F0FA78AE74FFF20800
:100ADF00EAF208E9F27BFE7A0079111200827BFEBE
:0E0AEF007A0079111212457810E204F280921A
:010AFD0022D6
:10131A00B2C2121344B2C2121344B2C2121344B27A
:0C132A00C2121344B2C2121344B2C22219
:100006007580FFE4F59075A0FF75B0FF75C0FF75AC
:0D00160092FFF591C2C3D289D2A8D2AF22C9
:0A13720000007F057E49DEFEDFFC6F
:01137C00224E
:0512F80078171204BE8E
:1012FD00E4781BF208F208F208F2781774FF120472
:0C130D00A0EC4D4E4F600512137280EEF4
:0113190022B1
:0C1344007F117ED07D1BDDFEDEFCDFFA99
:01135000227A
:0300030002120ADC
:10120A00C0E0C0F0C083C082C0D075D000C000C0AA
:10121A0001C002C003C004C005C006C007120DAF5A
:10122A00D007D006D005D004D003D002D001D00018
:0B123A00D0D0D082D083D0F0D0E032C2
:040D15007810EFF271
:100D1900087C007DFE7BFF7A0979297E007F3212EB
:100D290004517BFF7A08797F12124578AB74FFF280
:100D3900087408F208749BF27810E278AEF27BFE30
:100D49007A0079111200827BFE7A0079111212451C
:100D59007810E2700E780004F2C2C27BFF7A08793B
:100D6900A0803F7800E264017032D2C27810E2FFBD
:100D7900C394145017780BE22401F8EFF2780BE2D0
:100D890004F2E2B40A1FE47800F2800DE47800F27C
:100D99007BFF7A0879B912124502095B7BFF7A0851
:050DA90079D91212458A
:010DAE002222
:100616006875616E2078696E670000000000000052
:10062600000000006B61692066612062616E2079BE
:10063600616E207A68656E67646169206D6120630A
:100646006520736869000000000000006B616F2080
:100656006265690000000000000000000000000064
:1006660073616F206D69616F00000000000000007B
:100676000000000079690000000000000000000092
:10068600000000000000000065720000000000008D
:1006960000000000000000000000000073616E0012
:1006A6000000000000000000000000000000000044
:1006B6007369000000000000000000000000000058
:1006C6000000000077750000000000000000000038
:1006D60000000000000000006C69750000000000CA
:1006E600000000000000000000000000716900002A
:1006F60000000000000000000000000000000000F4
:100706006261000000000000000000000000000020
:10071600000000006A69750000000000000000008B
:10072600000000000000000073686900000000007F
:100736000000000000000000000000006261690087
:1007460000000000000000000000000000000000A3
:100756007169616E000000000000000000000000EA
:100766000000000077616E0000000000000000003D
:1007760000000000000000007A68616E670000005B
:100786000000000000000000000000007965000085
:100796000000000000000000000000000000000053
:1007A6006369000000000000000000000000000077
:1007B600000000006A6965736875000000000000AB
:1007C6000000000000000000000201040506070802
:0E07D600090A0B0C0E0F10111213141516FF4A
:100F63003C4C445637205245473E00256400200040
:100F73003C2F4C445637205245473E0D0A00000093
:100F8300000000000000000000000000000000005E
:100F9300000000000000000000000000000000004E
:100FA300000000000000000000000000000000003E
:100FB300000000000000000000000000000000002E
:100FC300000000000000000000000000000000001E
:100FD300000000000000000000000000000000000E
:020FE30000000C
:04135700820C25805F
:1012A900759850758920780CE2FE08E2FBAA06E4DD
:1012B900F9F8FF7EE1FDFC1211851204908F8B8FE6
:0812C9008DD28ED2ACD2AF220F
:030023000213863F
:011386003234
:0E133600C2ACC2998F993099FDC299D2AC22F7
:1012450078A8EBF208EAF208E9F278A8E2FB08E2EE
:10125500FA08E2F9120477601A78A8E2FB0808E2B6
:10126500F92401F218E2FA3400F2120477FF12139E
:041275003680D722C6
:10095B00E47843F2087C007DFE7BFF7A0F7981FE01
:10096B007F3212045178767C007DFE7BFF7A0F7903
:10097B00B37E007F3212045178AB74FFF208740F10
:10098B00F2087463F27BFE7A007976121064E478D5
:10099B0043F2780BE2FF7843E2FEC39F506378ABE0
:1009AB0074FFF208740FF208746EF274012EF8E201
:1009BB0078AEF27BFE7A00794412008278AB74FE3B
:1009CB00F2087400F2087444F27BFE7A0079761216
:1009DB0010647843E22401FFE433FE780BE26F707E
:1009EB0001EE601678AB74FFF208740FF2087471A5
:1009FB00F27BFE7A0079761210647843E204F2807F
:100A0B0091E4780BF278AB74FFF208740FF2087470
:100A1B0073F27BFE7A0079761210647BFE7A007992
:040A2B0076021245F8
:03000000020ED716
:0C0ED700787FE4F6D8FD758121020F1E23
:10038100E709F608DFFA8046E709F208DFFA803E5E
:1003910088828C83E709F0A3DFFA8032E309F6084B
:1003A100DFFA8078E309F208DFFA807088828C83B3
:1003B100E309F0A3DFFA806489828A83E0A3F60867
:1003C100DFFA805889828A83E0A3F208DFFA804C41
:1003D10080D280FA80C680D4806980F28033801018
:1003E10080A680EA809A80A880DA80E280CA803381
:1003F10089828A83ECFAE493A3C8C582C8CCC583F9
:10040100CCF0A3C8C582C8CCC583CCDFE9DEE780C8
:100411000D89828A83E493A3F608DFF9ECFAA9F047
:10042100EDFB2289828A83ECFAE0A3C8C582C8CC9D
:10043100C583CCF0A3C8C582C8CCC583CCDFEADEB6
:10044100E880DB89828A83E493A3F208DFF980CC18
:1004510088F0EF60010E4E60C388F0ED2402B40411
:100461000050B9F582EB2402B4040050AF232345B8
:0604710082239003D17309
:10047700BB010689828A83E0225002E722BBFE0283
:09048700E32289828A83E49322B6
:10118500C2D5E830E70FB2D5E4C39BFBE49AFAE495
:1011950099F9E498F8EC30E717B2D51211BB1205AE
:1011A50045E4C39BFBE49AFAE499F9E498F88003D3
:1011B50012054530D50DE4C39FFFE49EFEE49DFD79
:0411C500E49CFC2288
:0E049000C3E49FFFE49EFEE49DFDE49CFC227D
:10049E007401FF3395E0FEFDFC080808E2CF2FF251
:1004AE0018E2CE3EF218E2CD3DF218E2CC3CF2223A
:0C04BE00ECF208EDF208EEF208EFF2227A
:10002600E50824ABF8E205082278A830070278AB89
:10003600E475F0011205D70204772000EB7F2ED27B
:10004600008018EF540F2490D43440D4FF30040BB2
:10005600EF24BFB41A0050032461FFE509600215BE
:1000660009050CE50C7002050B30070D78A8E47540
:10007600F0011205D7EF0204F70212D17403D2077A
:100086008003E4C207F50878A81205E7E4F509F548
:100096000BF50CE50960077F2012006180F5750AF3
:1000A600FFC201C200C202C203C205C206C20812D2
:1000B600002FFF700D3007057F00120072AF0CAEE7
:1000C6000B22B4255FC2D5C20412002FFF24D0B480
:1000D6000A00501A75F00A780930D50508B6FF01EE
:1000E60006C6A426F620D5047002D20380D924CFF2
:1000F600B41A00EF5004C2E5D204020271D20180A4
:10010600C6D20080C0D20280BCD2D580BAD20580C9
:10011600B47F201200612002077401B5090040F186
:10012600120026FF120061020099D208D2068095BD
:10013600120026FB120026FA120026F94A4B700618
:1001460079427A037BFF20022EE509602A7E008E23
:10015600827583001204CA60060EEE650A70F0C24C
:10016600D5EBC0E0EAC0E0E9C0E0EE1202B8D0E0AC
:10017600F9D0E0FAD0E0FB120477FF60AAEBC0E00A
:10018600EAC0E0E9C0E0120061D0E02401F9D0E065
:100196003400FAD0E0FBE50A0460DCD50AD9808792
:1001A6007BFF7A0279B4D202809C791080027908AA
:1001B600C206C2088008D2D5790A8004790AC2D557
:1001C600E50A047002F50AE4FAFDFEFF120026FCB9
:1001D6007B08200113120026FD7B1030000A120056
:1001E60026FE120026FF7B20EC3382D592D55013D3
:1001F600C3E43000069FFFE49EFEE42001039DFD5C
:10020600E49CFCE4CBF8C201EC700CCFCECDCCE87C
:1002160024F8F870F38017C3EF33FFEE33FEED33A7
:10022600FDEC33FCEB33FB994002FB0FD8E9EB30D6
:100236000105F8D0E0C448B201C0E00AEC4D4E4FCB
:1002460078207B0070C2EAB50A0040BCC0E012020A
:10025600BAD0F0D0E0200104C4C0E0C4B201C0F0BE
:1002660012004AD0F0D5F0EB0200991205F00136E3
:100276005301B05801074C01034201B44F01BC447D
:1002860001BC49011C4301C25501A64601A6450110
:01029600A6C1
:1002970047036250010B2D010F2E01322B0113234F
:1002A700013020034B2A00CB480000012A3F3F3F83
:1002B70000790AA2D5200314300509B910020404F5
:1002C700B9080104A2D52006025001042002689251
:1002D70002B509005034C0E07F203003197F30A2F7
:1002E7000272067205500F120311C202C206C2053E
:1002F700C2087F30800F300503E9C0E0120061308B
:100307000503D0E0F9D0E0B509CC3005177F30B947
:10031700100C1200617F583004077F788003B908FA
:10032700031200613002057F2D0200617F20200843
:10033700F87F2B2006F322920280CF286E756C6C13
:100347002900D2011200263001F8C201780930D500
:100357000108F60200CB2D5043495812002624030A
:10036700B405004001E490035D93120052743A1201
:0A0377000052D2037509040201B020
:1010640078A8EBF208EAF208E9F278AEEBF208EAC3
:10107400F208E9F278A8E2FB0808E2F92401F21880
:10108400E2FA3400F212047770EA78AAE224FFF25A
:1010940018E234FFF278ABE2FB0808E2F92401F22B
:1010A40018E2FA3400F2120477FF78A8E2FB080889
:1010B400E2F92401F218E2FA3400F2EF1204F770B4
:0C10C400D478AEE2FB08E2FA08E2F92260
:100EE300020FE5E493A3F8E493A34003F68001F231
:100EF30008DFF48029E493A3F85407240CC8C33310
:100F0300C4540F4420C8834004F456800146F6DFDE
:100F1300E4800B0102040810204080901351E47E0A
:100F2300019360BCA3FF543F30E509541FFEE493D3
:100F3300A360010ECF54C025E060A840B8E493A39A
:100F4300FAE493A3F8E493A3C8C582C8CAC583CAC5
:100F5300F0A3C8C582C8CAC583CADFE9DEE780BE7D
:01135B000091
:1004CA00BB010CE58229F582E5833AF583E02250E7
:1004DA0006E92582F8E622BBFE06E92582F8E22231
:0D04EA00E58229F582E5833AF583E493224B
:1004F700BB010689828A83F0225002F722BBFE01E4
:02050700F322DD
:1005090075F008758200EF2FFFEE33FECD33CDCCA9
:1005190033CCC58233C5829BED9AEC99E58298402C
:100529000CF582EE9BFEED9AFDEC99FC0FD5F0D609
:10053900E4CEFBE4CDFAE4CCF9A88222B800C1B933
:100549000059BA002DEC8BF084CFCECDFCE5F0CB71
:10055900F97818EF2FFFEE33FEED33FDEC33FCEBAA
:1005690033FB10D703994004EB99FB0FD8E5E4F965
:10057900FA227818EF2FFFEE33FEED33FDEC33FC52
:10058900C933C910D7059BE99A4007EC9BFCE99A46
:10059900F90FD8E0E4C9FAE4CCFB2275F010EF2F8B
:1005A900FFEE33FEED33FDCC33CCC833C810D7078B
:1005B9009BEC9AE899400AED9BFDEC9AFCE899F8C6
:0E05C9000FD5F0DAE4CDFBE4CCFAE4C8F92259
:1005D700FAE2FB0808E2F925F0F218E2CA3AF22239
:0905E700EBF208EAF208E9F22245
:1005F000D083D082F8E4937012740193700DA3A39A
:1006000093F8740193F5828883E4737402936860AD
:06061000EFA3A3A380DFAD
:1012D100EFB40A07740D1212DC740A309811A89940
:1012E100B8130CC2983098FDA899C298B811F6307D
:0712F10099FDC299F5992255
:00000001FF
