:03116700010D0077
:100F1400E4780FF2121130120006120FAA1210BF59
:100F2400E4780DF6780BF21209A3780DE61460FA52
:100F340024F1601824DF60F224317020780D7601EA
:100F4400120EBEEF70E4780D763180DE12119378C4
:100F54000FEFF6121026E4780DF680CEE4780DF645
:020F640080C843
:100FAA00D2B57F017E007D007C0012110EC2B57F92
:100FBA00017E007D007C0012110ED2B57F017E00F9
:100FCA007D007C0012110EC2A17F017E007D007C93
:100FDA000012110ED2A17F017E007D007C00021159
:010FEA000EF8
:100B21007F0612117D7D357F171211727F0A7E00BB
:100B31007D007C0012110E7F0612117D7D037F89DD
:100B41001211727F057E007D007C0012110E7D4323
:100B51007FCF1211727F057E007D007C0012110E85
:100B61007D027FCB1211727D0A7F11121172E4FD99
:100B71007F1E1211727D3F7F191211727D487F1BFA
:100B81001211727D1F7F1D1211727F0A7E007D007E
:100B91007C0012110E7D047FCD1211727F057E0043
:100BA1007D007C0012110EE4FD7FB91211727D4FA0
:0C0BB1007FCF1211727DFF7F6F02117266
:100E5F00120B21E4FD7FBD1211727D487F17121115
:100E6F00727F0A7E007D007C0012110E7D807F3C18
:100E7F001211727D077F3E1211727DFF7F381211A2
:100E8F00727D077F3A121172E4FD7F401211727D5D
:100E9F00087F42121172E4FD7F441211727D087FA8
:0F0EAF00461211727F017E007D007C0002110E41
:100BBD00E4780EF2C2A87F2B12117D780EA607E401
:100BCD00FD7F29121172E4FD7F02121172780EE67B
:100BDD0030E42C7FB212117DEF642170227FBF12A1
:100BED00117DBF351A7FBA12117D780EEFF2D394B5
:100BFD0000400CE2D394045006780D7610800478F2
:100C0D000D7611E4FD7F2B121172E4FD7F1C121184
:100C1D0072E4FD7F29121172E4FD7F02121172E45C
:100C2D00FD7F2B121172E4FD7FBA121172E4FD7F6C
:100C3D00BC1211727D017F08121172E4FD7F081242
:040C4D001172D2A8A6
:010C51002280
:100EBE00E47810F208F218F21211997F327E007D5A
:100ECE00007C0012110E120A72EF700280117F0A5E
:100EDE007E007D007C0012110E120C52EF7010126B
:100EEE000FAA7F327E007D007C0012110E800778E3
:100EFE00117401F2800B7810E204F2E2C394054003
:050F0E00B77811E2FFBD
:010F130022BB
:10108F00E47816F218F27FB212117DBF210778169D
:10109F007401F280167F0A7E007D007C0012110E13
:0F10AF007815E204F2E2C3940A40DB7816E2FF00
:0110BE00220F
:03119900020E5FE4
:100C5200C2A87D557F351211727D097F1C12117257
:100C62007D207FBD1211727D017F081211727F01FA
:100C72007E007D007C0012110EE4FD7F08121172CD
:100C82007F017E007D007C0012110E12108FEF702A
:100C920002FF227D0B7F1C1211727DFF7FB21211A7
:100CA200727F017E007D007C0012110E7D067F376F
:100CB2001211727F017E007D007C0012110E7D06F2
:100CC2007F371211727F057E007D007C0012110EAB
:100CD2007D107F29121172E4FD7FBD121172D2A81C
:030CE2007F01226D
:100A720078137401F2E418F212108FEF70067813F3
:100A8200F2020B1C7812E29007CE93FD7FC1121185
:100A920072E4FD7FC31211727D047F081211727F0E
:100AA200017E007D007C0012110EE4FD7F08121110
:100AB200727F017E007D007C0012110EE47814F238
:100AC2007814E2FFC39414502C7812E275F014A447
:100AD2002416F582E5F03406F583E5822FF582E4EB
:100AE2003583F583E493FD600C7F0512117278144F
:100AF200E204F280CB7814E2FD7FB91211727DFF1D
:100B02007FB21211727D047F371211727812E204E1
:0E0B1200F2E2C394165003020A7A7813E2FF4F
:010B200022B2
:061193007FC512117D2250
:0B117200908100EFF0908000EDF02273
:0B117D00908100EFF0908000E0FF2266
:1007E4003D3D3D3D3D3D3D3D3D3D3D3D3D3D3D3D35
:1007F4003D3D3D3D3D3D3D3D3D3D3D3D3D3D3D3D25
:100804003D3D3D3D3D3D3D3D0D0A003D3D3D3D3DB4
:100814003D3D3D3D3D204C44563720566F69636550
:10082400205072696E7472203D3D3D3D3D3D3D3D1D
:100834003D3D3D0D0A004669727374206C65766512
:100844006C2070617373776F7264203A2025730D86
:100854000A005365636F6E6461727920706173730B
:10086400776F72642020203A200D0A002020202077
:1008740025642E20002573200D0A004552524F5244
:10088400203A2043616E2774207265636F676E6936
:100894007A65642021200D0A000000000000000099
:1008A4000000000000000000000000000000000044
:1008B4000000000000000000000000000000000034
:0B08C400000000000000000000000029
:03116A0081000001
:1009A300E47810F2087C007DFE7BFF7A08799DFED7
:1009B3007F321204517BFF7A0779E412105B7BFFCD
:1009C3007A08790F12105B787874FFF2087408F2D2
:1009D30008743AF20874FFF2087406F2087416F207
:1009E3007BFE7A0079111200827BFE7A0079111264
:1009F300105B7BFF7A08795612105B78107401F252
:100A03007810E2FFC394165065787874FFF2087487
:100A130008F2087470F208E4F208EFF27BFE7A0041
:100A230079111200827BFE7A00791112105B7878BB
:100A330074FFF2087408F2087479F27810E275F022
:100A430014A42416F9740635F0FA787B74FFF208BF
:100A5300EAF208E9F27BFE7A0079111200827BFE4A
:0E0A63007A00791112105B7810E204F2809292
:010A71002262
:10113000B2C212115AB2C212115AB2C212115AB22A
:0C114000C212115AB2C212115AB2C222DD
:100006007580FFE4F59075A0FF75B0FF75C0FF75AC
:0D00160092FFF591C2C3D289D2A8D2AF22C9
:0A11880000007F057E49DEFEDFFC5B
:01119200223A
:05110E0078171204BE79
:10111300E4781BF208F208F208F2781774FF12045D
:0C112300A0EC4D4E4F600512118880EECC
:01112F00229D
:0C115A007F117ED07D1BDDFEDEFCDFFA85
:011166002266
:03000300020FEBFE
:100FEB00C0E0C0F0C083C082C0D075D000C000C0CC
:100FFB0001C002C003C004C005C006C007120BBD70
:10100B00D007D006D005D004D003D002D001D00039
:0B101B00D0D0D082D083D0F0D0E032E3
:10102600EF7007780004F2C2C2227800E2B4011B16
:10103600E4F2D2C2EFC39414500E780BE22401F806
:10104600EFF2780BE204F2220208CF7BFF7A0879EE
:051056007F12105B2277
:100616006875616E2078696E670000000000000052
:10062600000000006B61692066612062616E2079BE
:10063600616E207A68656E67646169206D6120630A
:100646006520736869000000000000006B616F2080
:100656006265690000000000000000000000000064
:1006660073616F206D69616F00000000000000007B
:100676000000000079690000000000000000000092
:10068600000000000000000065720000000000008D
:1006960000000000000000000000000073616E0012
:1006A6000000000000000000000000000000000044
:1006B6007369000000000000000000000000000058
:1006C6000000000077750000000000000000000038
:1006D60000000000000000006C69750000000000CA
:1006E600000000000000000000000000716900002A
:1006F60000000000000000000000000000000000F4
:100706006261000000000000000000000000000020
:10071600000000006A69750000000000000000008B
:10072600000000000000000073686900000000007F
:100736000000000000000000000000006261690087
:1007460000000000000000000000000000000000A3
:100756007169616E000000000000000000000000EA
:100766000000000077616E0000000000000000003D
:1007760000000000000000007A68616E670000005B
:100786000000000000000000000000007965000085
:100796000000000000000000000000000000000053
:1007A6006369000000000000000000000000000077
:1007B600000000006A6965736875000000000000AB
:1007C6000000000000000000000201040506070802
:0E07D600090A0B0C0E0F10111213141516FF4A
:100D71003C4C445637205245473E0025640009004B
:100D81003C2F4C445637205245473E0D0A00000087
:100D91000000000000000000000000000000000052
:100DA1000000000000000000000000000000000042
:100DB1000000000000000000000000000000000032
:100DC1000000000000000000000000000000000022
:100DD1000000000000000000000000000000000012
:100DE1000000000000000000000000000000000002
:020DF100000000
:04116D00820C25804B
:1010BF00759850758920780CE2FE08E2FBAA06E4C9
:1010CF00F9F8FF7EE1FDFC120F661204908F8B8FF3
:0810DF008DD28ED2ACD2AF22FB
:0300230002119C2B
:01119C003220
:0E114C00C2ACC2998F993099FDC299D2AC22E3
:10105B007875EBF208EAF208E9F27875E2FB08E240
:10106B00FA08E2F9120477601A7875E2FB0808E2D5
:10107B00F92401F218E2FA3400F2120477FF12118C
:04108B004C80D7229C
:1008CF00E47810F2087C007DFE7BFF7A0D798FFEB5
:1008DF007F3212045178437C007DFE7BFF7A0D79C5
:1008EF00C17E007F32120451787874FFF208740DC4
:1008FF00F2087471F27BFE7A007943120DF3E478FB
:10090F0010F2780BE2FF7810E2FEC39F5063787805
:10091F0074FFF208740DF208747CF274012EF8E281
:10092F00787BF27BFE7A007911120082787874FE60
:10093F00F2087400F2087411F27BFE7A0079431208
:10094F000DF37810E22401FFE433FE780BE26F70B1
:10095F0001EE6016787874FFF208740DF208747F58
:10096F00F27BFE7A007943120DF37810E204F280E5
:10097F0091E4780BF2787874FFF208740DF2087432
:10098F0081F27BFE7A007943120DF37BFE7A0079B8
:04099F004302105BA4
:03000000020CE50A
:0C0CE500787FE4F6D8FD758121020D2C0B
:10038100E709F608DFFA8046E709F208DFFA803E5E
:1003910088828C83E709F0A3DFFA8032E309F6084B
:1003A100DFFA8078E309F208DFFA807088828C83B3
:1003B100E309F0A3DFFA806489828A83E0A3F60867
:1003C100DFFA805889828A83E0A3F208DFFA804C41
:1003D10080D280FA80C680D4806980F28033801018
:1003E10080A680EA809A80A880DA80E280CA803381
:1003F10089828A83ECFAE493A3C8C582C8CCC583F9
:10040100CCF0A3C8C582C8CCC583CCDFE9DEE780C8
:100411000D89828A83E493A3F608DFF9ECFAA9F047
:10042100EDFB2289828A83ECFAE0A3C8C582C8CC9D
:10043100C583CCF0A3C8C582C8CCC583CCDFEADEB6
:10044100E880DB89828A83E493A3F208DFF980CC18
:1004510088F0EF60010E4E60C388F0ED2402B40411
:100461000050B9F582EB2402B4040050AF232345B8
:0604710082239003D17309
:10047700BB010689828A83E0225002E722BBFE0283
:09048700E32289828A83E49322B6
:100F6600C2D5E830E70FB2D5E4C39BFBE49AFAE4B6
:100F760099F9E498F8EC30E717B2D5120F9C1205F0
:100F860045E4C39BFBE49AFAE499F9E498F88003F4
:100F960012054530D50DE4C39FFFE49EFEE49DFD9A
:040FA600E49CFC22A9
:0E049000C3E49FFFE49EFEE49DFDE49CFC227D
:10049E007401FF3395E0FEFDFC080808E2CF2FF251
:1004AE0018E2CE3EF218E2CD3DF218E2CC3CF2223A
:0C04BE00ECF208EDF208EEF208EFF2227A
:10002600E5082478F8E20508227875300702787822
:10003600E475F0011205D70204772000EB7F2ED27B
:10004600008018EF540F2490D43440D4FF30040BB2
:10005600EF24BFB41A0050032461FFE509600215BE
:1000660009050CE50C7002050B30070D7875E47573
:10007600F0011205D7EF0204F70210E77403D20766
:100086008003E4C207F50878751205E7E4F509F57B
:100096000BF50CE50960077F2012006180F5750AF3
:1000A600FFC201C200C202C203C205C206C20812D2
:1000B600002FFF700D3007057F00120072AF0CAEE7
:1000C6000B22B4255FC2D5C20412002FFF24D0B480
:1000D6000A00501A75F00A780930D50508B6FF01EE
:1000E60006C6A426F620D5047002D20380D924CFF2
:1000F600B41A00EF5004C2E5D204020271D20180A4
:10010600C6D20080C0D20280BCD2D580BAD20580C9
:10011600B47F201200612002077401B5090040F186
:10012600120026FF120061020099D208D2068095BD
:10013600120026FB120026FA120026F94A4B700618
:1001460079427A037BFF20022EE509602A7E008E23
:10015600827583001204CA60060EEE650A70F0C24C
:10016600D5EBC0E0EAC0E0E9C0E0EE1202B8D0E0AC
:10017600F9D0E0FAD0E0FB120477FF60AAEBC0E00A
:10018600EAC0E0E9C0E0120061D0E02401F9D0E065
:100196003400FAD0E0FBE50A0460DCD50AD9808792
:1001A6007BFF7A0279B4D202809C791080027908AA
:1001B600C206C2088008D2D5790A8004790AC2D557
:1001C600E50A047002F50AE4FAFDFEFF120026FCB9
:1001D6007B08200113120026FD7B1030000A120056
:1001E60026FE120026FF7B20EC3382D592D55013D3
:1001F600C3E43000069FFFE49EFEE42001039DFD5C
:10020600E49CFCE4CBF8C201EC700CCFCECDCCE87C
:1002160024F8F870F38017C3EF33FFEE33FEED33A7
:10022600FDEC33FCEB33FB994002FB0FD8E9EB30D6
:100236000105F8D0E0C448B201C0E00AEC4D4E4FCB
:1002460078207B0070C2EAB50A0040BCC0E012020A
:10025600BAD0F0D0E0200104C4C0E0C4B201C0F0BE
:1002660012004AD0F0D5F0EB0200991205F00136E3
:100276005301B05801074C01034201B44F01BC447D
:1002860001BC49011C4301C25501A64601A6450110
:01029600A6C1
:1002970047036250010B2D010F2E01322B0113234F
:1002A700013020034B2A00CB480000012A3F3F3F83
:1002B70000790AA2D5200314300509B910020404F5
:1002C700B9080104A2D52006025001042002689251
:1002D70002B509005034C0E07F203003197F30A2F7
:1002E7000272067205500F120311C202C206C2053E
:1002F700C2087F30800F300503E9C0E0120061308B
:100307000503D0E0F9D0E0B509CC3005177F30B947
:10031700100C1200617F583004077F788003B908FA
:10032700031200613002057F2D0200617F20200843
:10033700F87F2B2006F322920280CF286E756C6C13
:100347002900D2011200263001F8C201780930D500
:100357000108F60200CB2D5043495812002624030A
:10036700B405004001E490035D93120052743A1201
:0A0377000052D2037509040201B020
:100DF3007875EBF208EAF208E9F2787BEBF208EA9D
:100E0300F208E9F27875E2FB0808E2F92401F21826
:100E1300E2FA3400F212047770EA7877E224FFF200
:100E230018E234FFF27878E2FB0808E2F92401F2D1
:100E330018E2FA3400F2120477FF7875E2FB08082F
:100E4300E2F92401F218E2FA3400F2EF1204F77027
:0C0E5300D4787BE2FB08E2FA08E2F92206
:100CF100020F14E493A3F8E493A34003F68001F2F6
:100D010008DFF48029E493A3F85407240CC8C33303
:100D1100C4540F4420C8834004F456800146F6DFD2
:100D2100E4800B0102040810204080901167E47EEA
:100D3100019360BCA3FF543F30E509541FFEE493C7
:100D4100A360010ECF54C025E060A840B8E493A38E
:100D5100FAE493A3F8E493A3C8C582C8CAC583CAB9
:100D6100F0A3C8C582C8CAC583CADFE9DEE780BE71
:01117100007D
:1004CA00BB010CE58229F582E5833AF583E02250E7
:1004DA0006E92582F8E622BBFE06E92582F8E22231
:0D04EA00E58229F582E5833AF583E493224B
:1004F700BB010689828A83F0225002F722BBFE01E4
:02050700F322DD
:1005090075F008758200EF2FFFEE33FECD33CDCCA9
:1005190033CCC58233C5829BED9AEC99E58298402C
:100529000CF582EE9BFEED9AFDEC99FC0FD5F0D609
:10053900E4CEFBE4CDFAE4CCF9A88222B800C1B933
:100549000059BA002DEC8BF084CFCECDFCE5F0CB71
:10055900F97818EF2FFFEE33FEED33FDEC33FCEBAA
:1005690033FB10D703994004EB99FB0FD8E5E4F965
:10057900FA227818EF2FFFEE33FEED33FDEC33FC52
:10058900C933C910D7059BE99A4007EC9BFCE99A46
:10059900F90FD8E0E4C9FAE4CCFB2275F010EF2F8B
:1005A900FFEE33FEED33FDCC33CCC833C810D7078B
:1005B9009BEC9AE899400AED9BFDEC9AFCE899F8C6
:0E05C9000FD5F0DAE4CDFBE4CCFAE4C8F92259
:1005D700FAE2FB0808E2F925F0F218E2CA3AF22239
:0905E700EBF208EAF208E9F22245
:1005F000D083D082F8E4937012740193700DA3A39A
:1006000093F8740193F5828883E4737402936860AD
:06061000EFA3A3A380DFAD
:1010E700EFB40A07740D1210F2740A309811A89918
:1010F700B8130CC2983098FDA899C298B811F63069
:0711070099FDC299F5992240
:00000001FF
