:03125600010D0087
:10103800E4780FF212121F1200061210CE1211AE2F
:10104800E4780DF6780BF2120A2D780DE61460FAA2
:1010580024F1601824DF60F224317020780D7601C5
:10106800120FE2EF70E4780D763180DE121282788A
:101078000FEFF6120C47E4780DF680CEE4780DF603
:0210880080C81E
:1010CE00D2B57F017E007D007C001211FDC2B57F7E
:1010DE00017E007D007C001211FDD2B57F017E00E5
:1010EE007D007C001211FDC2A17F017E007D007C7F
:1010FE00001211FDD2A17F017E007D007C00021145
:01110E00FDE3
:100BAB007F0612126C7D357F171212617F0A7E0051
:100BBB007D007C001211FD7F0612126C7D037F8974
:100BCB001212617F057E007D007C001211FD7D43BA
:100BDB007FCF1212617F057E007D007C001211FD1C
:100BEB007D027FCB1212617D0A7F11121261E4FD2F
:100BFB007F1E1212617D3F7F191212617D487F1B90
:100C0B001212617D1F7F1D1212617F0A7E007D0013
:100C1B007C001211FD7D047FCD1212617F057E00D9
:100C2B007D007C001211FDE4FD7FB91212617D4F36
:0C0C3B007FCF1212617DFF7F6F021261FB
:100F8300120BABE4FD7FBD1212617D487F17121275
:100F9300617F0A7E007D007C001211FD7D807F3C15
:100FA3001212617D077F3E1212617DFF7F3812129C
:100FB300617D077F3A121261E4FD7F401212617D69
:100FC300087F42121261E4FD7F441212617D087FA3
:0F0FD300461212617F017E007D007C000211FD3D
:100CE100E4780EF2C2A87F2B12126C780EA607E4EC
:100CF100FD7F29121261E4FD7F02121261780EE676
:100D010030E42C7FB212126CEF642170227FBF128B
:100D1100126CBF351A7FBA12126C780EEFF2D394AF
:100D210000400CE2D394045006780D7610800478CC
:100D31000D7611E4FD7F2B121261E4FD7F1C12126E
:100D410061E4FD7F29121261E4FD7F02121261E468
:100D5100FD7F2B121261E4FD7FBA121261E4FD7F67
:100D6100BC1212617D017F08121261E4FD7F08123D
:040D71001261D2A891
:010D7500225B
:100FE200E47810F208F218F21212887F327E007D45
:100FF200007C001211FD120AFCEF700280117F0AC0
:101002007E007D007C001211FD120D76EF70101231
:1010120010CE7F327E007D007C001211FD800778A9
:10102200117401F2800B7810E204F2E2C3940540DD
:05103200B77811E2FF98
:011037002296
:10117E00E47816F218F27FB212126CBF21077816BD
:10118E007401F280167F0A7E007D007C001211FD34
:0F119E007815E204F2E2C3940A40DB7816E2FF10
:0111AD00221F
:03128800020F83CF
:100D7600C2A87D557F351212617D097F1C12126152
:100D86007D207FBD1212617D017F081212617F01F5
:100D96007E007D007C001211FDE4FD7F08121261C9
:100DA6007F017E007D007C001211FD12117EEF7026
:100DB60002FF227D0B7F1C1212617DFF7FB2121291
:100DC600617F017E007D007C001211FD7D067F376C
:100DD6001212617F017E007D007C001211FD7D06EE
:100DE6007F371212617F057E007D007C001211FDA7
:100DF6007D107F29121261E4FD7FBD121261D2A817
:030E06007F012247
:100AFC0078137401F2E418F212117EEF7006781379
:100B0C00F2020BA67812E29007CE93FD7FC112126F
:100B1C0061E4FD7FC31212617D047F081212617FB4
:100B2C00017E007D007C001211FDE4FD7F08121295
:100B3C00617F017E007D007C001211FDE47814F2CF
:100B4C007814E2FFC39414502C7812E275F014A4BC
:100B5C002416F582E5F03406F583E5822FF582E460
:100B6C003583F583E493FD600C7F051212617814D4
:100B7C00E204F280CB7814E2FD7FB91212617DFFA2
:100B8C007FB21212617D047F371212617812E20477
:0E0B9C00F2E2C394165003020B047813E2FF3A
:010BAA002228
:061282007FC512126C2270
:0B126100908100EFF0908000EDF02283
:0B126C00908100EFF0908000E0FF2276
:1007E4003D3D3D3D3D3D3D3D3D3D3D3D3D3D3D3D35
:1007F4003D3D3D3D3D3D3D3D3D3D3D3D3D3D3D3D25
:100804003D3D3D3D3D3D3D3D0D0A003D3D3D3D3DB4
:100814003D3D3D3D3D204C44563720566F69636550
:10082400205072696E7472203D3D3D3D3D3D3D3D1D
:100834003D3D3D0D0A004669727374206C65766512
:100844006C2070617373776F7264203A2025730D86
:100854000A005365636F6E6461727920706173730B
:10086400776F72642020203A200D0A002020202077
:1008740025642E20002573200D0A00544950203A87
:100884002053797374656D2077616B6575702021D1
:10089400200D0A00544950203A205265636F676E58
:1008A400697A656420636F646520EFBC9A002564EF
:1008B4000D0A00544950203A205265636F676E69EF
:1008C4007A6564206C697374206F766572202120C8
:1008D4000D0A004552524F52203A2043616E27744C
:1008E400207265636F676E697A65642021200D0A42
:1008F40000000000000000000000000000000000F4
:1009040000000000000000000000000000000000E3
:1009140000000000000000000000000000000000D3
:1009240000000000000000000000000000000000C3
:1009340000000000000000000000000000000000B3
:1009440000000000000000000000000000000000A3
:0509540000000000009E
:0312590081000011
:100A2D00E47810F2087C007DFE7BFF7A0879F5FEF4
:100A3D007F321204517BFF7A0779E412114A7BFF52
:100A4D007A08790F12114A78AB74FFF2087408F224
:100A5D0008743AF20874FFF2087406F2087416F27C
:100A6D007BFE7A0079111200827BFE7A00791112D9
:100A7D00114A7BFF7A08795612114A78107401F2E7
:100A8D007810E2FFC39416506578AB74FFF20874CA
:100A9D0008F2087470F208E4F208EFF27BFE7A00B7
:100AAD0079111200827BFE7A00791112114A78AB0E
:100ABD0074FFF2087408F2087479F27810E275F098
:100ACD0014A42416F9740635F0FA78AE74FFF20802
:100ADD00EAF208E9F27BFE7A0079111200827BFEC0
:0E0AED007A00791112114A7810E204F2809218
:010AFB0022D8
:10121F00B2C2121249B2C2121249B2C2121249B26A
:0C122F00C2121249B2C2121249B2C2220D
:100006007580FFE4F59075A0FF75B0FF75C0FF75AC
:0D00160092FFF591C2C3D289D2A8D2AF22C9
:0A12770000007F057E49DEFEDFFC6B
:01128100224A
:0511FD0078171204BE8A
:10120200E4781BF208F208F208F2781774FF12046D
:0C121200A0EC4D4E4F600512127780EEEC
:01121E0022AD
:0C1249007F117ED07D1BDDFEDEFCDFFA95
:011255002276
:0300030002110FD8
:10110F00C0E0C0F0C083C082C0D075D000C000C0A6
:10111F0001C002C003C004C005C006C007120CE125
:10112F00D007D006D005D004D003D002D001D00014
:0B113F00D0D0D082D083D0F0D0E032BE
:040C47007810EFF240
:100C4B00087C007DFE7BFF7A0979277E007F3212BC
:100C5B0004517810E2700E780004F2C2C27BFF7A66
:100C6B0008797F806D7800E264017060D2C27BFFEF
:100C7B007A08799812114A78AB74FFF2087408F26B
:100C8B000874B2F27810E278AEF27BFE7A0079113A
:100C9B001200827BFE7A00791112114A7810E2FF62
:100CAB00C394145017780BE22401F8EFF2780BE29F
:100CBB0004F2E2B40A1FE47800F2800DE47800F24B
:100CCB007BFF7A0879B712114A0209597BFF7A0820
:050CDB0079D712114A57
:010CE00022F1
:100616006875616E2078696E670000000000000052
:10062600000000006B61692066612062616E2079BE
:10063600616E207A68656E67646169206D6120630A
:100646006520736869000000000000006B616F2080
:100656006265690000000000000000000000000064
:1006660073616F206D69616F00000000000000007B
:100676000000000079690000000000000000000092
:10068600000000000000000065720000000000008D
:1006960000000000000000000000000073616E0012
:1006A6000000000000000000000000000000000044
:1006B6007369000000000000000000000000000058
:1006C6000000000077750000000000000000000038
:1006D60000000000000000006C69750000000000CA
:1006E600000000000000000000000000716900002A
:1006F60000000000000000000000000000000000F4
:100706006261000000000000000000000000000020
:10071600000000006A69750000000000000000008B
:10072600000000000000000073686900000000007F
:100736000000000000000000000000006261690087
:1007460000000000000000000000000000000000A3
:100756007169616E000000000000000000000000EA
:100766000000000077616E0000000000000000003D
:1007760000000000000000007A68616E670000005B
:100786000000000000000000000000007965000085
:100796000000000000000000000000000000000053
:1007A6006369000000000000000000000000000077
:1007B600000000006A6965736875000000000000AB
:1007C6000000000000000000000201040506070802
:0E07D600090A0B0C0E0F10111213141516FF4A
:100E95003C4C445637205245473E00256400090026
:100EA5003C2F4C445637205245473E0D0A00000062
:100EB500000000000000000000000000000000002D
:100EC500000000000000000000000000000000001D
:100ED500000000000000000000000000000000000D
:100EE50000000000000000000000000000000000FD
:100EF50000000000000000000000000000000000ED
:100F050000000000000000000000000000000000DC
:020F15000000DA
:04125C00820C25805B
:1011AE00759850758920780CE2FE08E2FBAA06E4D9
:1011BE00F9F8FF7EE1FDFC12108A1204908F8B8FDE
:0811CE008DD28ED2ACD2AF220B
:0300230002128B3B
:01128B003230
:0E123B00C2ACC2998F993099FDC299D2AC22F3
:10114A0078A8EBF208EAF208E9F278A8E2FB08E2EA
:10115A00FA08E2F9120477601A78A8E2FB0808E2B2
:10116A00F92401F218E2FA3400F2120477FF12129B
:04117A003B80D722BD
:10095900E47843F2087C007DFE7BFF7A0E79B3FED2
:100969007F3212045178767C007DFE7BFF7A0E7906
:10097900E57E007F3212045178AB74FFF208740EE1
:10098900F2087495F27BFE7A007976120F17E478F3
:1009990043F2780BE2FF7843E2FEC39F506378ABE2
:1009A90074FFF208740EF20874A0F274012EF8E2D2
:1009B90078AEF27BFE7A00794412008278AB74FE3D
:1009C900F2087400F2087444F27BFE7A0079761218
:1009D9000F177843E22401FFE433FE780BE26F70CE
:1009E90001EE601678AB74FFF208740EF20874A376
:1009F900F27BFE7A007976120F177843E204F280CF
:100A090091E4780BF278AB74FFF208740EF2087473
:100A1900A5F27BFE7A007976120F177BFE7A0079B0
:040A29007602114AF6
:03000000020E09E4
:0C0E0900787FE4F6D8FD758121020E50C0
:10038100E709F608DFFA8046E709F208DFFA803E5E
:1003910088828C83E709F0A3DFFA8032E309F6084B
:1003A100DFFA8078E309F208DFFA807088828C83B3
:1003B100E309F0A3DFFA806489828A83E0A3F60867
:1003C100DFFA805889828A83E0A3F208DFFA804C41
:1003D10080D280FA80C680D4806980F28033801018
:1003E10080A680EA809A80A880DA80E280CA803381
:1003F10089828A83ECFAE493A3C8C582C8CCC583F9
:10040100CCF0A3C8C582C8CCC583CCDFE9DEE780C8
:100411000D89828A83E493A3F608DFF9ECFAA9F047
:10042100EDFB2289828A83ECFAE0A3C8C582C8CC9D
:10043100C583CCF0A3C8C582C8CCC583CCDFEADEB6
:10044100E880DB89828A83E493A3F208DFF980CC18
:1004510088F0EF60010E4E60C388F0ED2402B40411
:100461000050B9F582EB2402B4040050AF232345B8
:0604710082239003D17309
:10047700BB010689828A83E0225002E722BBFE0283
:09048700E32289828A83E49322B6
:10108A00C2D5E830E70FB2D5E4C39BFBE49AFAE491
:10109A0099F9E498F8EC30E717B2D51210C01205A6
:1010AA0045E4C39BFBE49AFAE499F9E498F88003CF
:1010BA0012054530D50DE4C39FFFE49EFEE49DFD75
:0410CA00E49CFC2284
:0E049000C3E49FFFE49EFEE49DFDE49CFC227D
:10049E007401FF3395E0FEFDFC080808E2CF2FF251
:1004AE0018E2CE3EF218E2CD3DF218E2CC3CF2223A
:0C04BE00ECF208EDF208EEF208EFF2227A
:10002600E50824ABF8E205082278A830070278AB89
:10003600E475F0011205D70204772000EB7F2ED27B
:10004600008018EF540F2490D43440D4FF30040BB2
:10005600EF24BFB41A0050032461FFE509600215BE
:1000660009050CE50C7002050B30070D78A8E47540
:10007600F0011205D7EF0204F70211D67403D20776
:100086008003E4C207F50878A81205E7E4F509F548
:100096000BF50CE50960077F2012006180F5750AF3
:1000A600FFC201C200C202C203C205C206C20812D2
:1000B600002FFF700D3007057F00120072AF0CAEE7
:1000C6000B22B4255FC2D5C20412002FFF24D0B480
:1000D6000A00501A75F00A780930D50508B6FF01EE
:1000E60006C6A426F620D5047002D20380D924CFF2
:1000F600B41A00EF5004C2E5D204020271D20180A4
:10010600C6D20080C0D20280BCD2D580BAD20580C9
:10011600B47F201200612002077401B5090040F186
:10012600120026FF120061020099D208D2068095BD
:10013600120026FB120026FA120026F94A4B700618
:1001460079427A037BFF20022EE509602A7E008E23
:10015600827583001204CA60060EEE650A70F0C24C
:10016600D5EBC0E0EAC0E0E9C0E0EE1202B8D0E0AC
:10017600F9D0E0FAD0E0FB120477FF60AAEBC0E00A
:10018600EAC0E0E9C0E0120061D0E02401F9D0E065
:100196003400FAD0E0FBE50A0460DCD50AD9808792
:1001A6007BFF7A0279B4D202809C791080027908AA
:1001B600C206C2088008D2D5790A8004790AC2D557
:1001C600E50A047002F50AE4FAFDFEFF120026FCB9
:1001D6007B08200113120026FD7B1030000A120056
:1001E60026FE120026FF7B20EC3382D592D55013D3
:1001F600C3E43000069FFFE49EFEE42001039DFD5C
:10020600E49CFCE4CBF8C201EC700CCFCECDCCE87C
:1002160024F8F870F38017C3EF33FFEE33FEED33A7
:10022600FDEC33FCEB33FB994002FB0FD8E9EB30D6
:100236000105F8D0E0C448B201C0E00AEC4D4E4FCB
:1002460078207B0070C2EAB50A0040BCC0E012020A
:10025600BAD0F0D0E0200104C4C0E0C4B201C0F0BE
:1002660012004AD0F0D5F0EB0200991205F00136E3
:100276005301B05801074C01034201B44F01BC447D
:1002860001BC49011C4301C25501A64601A6450110
:01029600A6C1
:1002970047036250010B2D010F2E01322B0113234F
:1002A700013020034B2A00CB480000012A3F3F3F83
:1002B70000790AA2D5200314300509B910020404F5
:1002C700B9080104A2D52006025001042002689251
:1002D70002B509005034C0E07F203003197F30A2F7
:1002E7000272067205500F120311C202C206C2053E
:1002F700C2087F30800F300503E9C0E0120061308B
:100307000503D0E0F9D0E0B509CC3005177F30B947
:10031700100C1200617F583004077F788003B908FA
:10032700031200613002057F2D0200617F20200843
:10033700F87F2B2006F322920280CF286E756C6C13
:100347002900D2011200263001F8C201780930D500
:100357000108F60200CB2D5043495812002624030A
:10036700B405004001E490035D93120052743A1201
:0A0377000052D2037509040201B020
:100F170078A8EBF208EAF208E9F278AEEBF208EA11
:100F2700F208E9F278A8E2FB0808E2F92401F218CE
:100F3700E2FA3400F212047770EA78AAE224FFF2A8
:100F470018E234FFF278ABE2FB0808E2F92401F279
:100F570018E2FA3400F2120477FF78A8E2FB0808D7
:100F6700E2F92401F218E2FA3400F2EF1204F77002
:0C0F7700D478AEE2FB08E2FA08E2F922AE
:100E1500021038E493A3F8E493A34003F68001F2AB
:100E250008DFF48029E493A3F85407240CC8C333DE
:100E3500C4540F4420C8834004F456800146F6DFAD
:100E4500E4800B0102040810204080901256E47ED5
:100E5500019360BCA3FF543F30E509541FFEE493A2
:100E6500A360010ECF54C025E060A840B8E493A369
:100E7500FAE493A3F8E493A3C8C582C8CAC583CA94
:100E8500F0A3C8C582C8CAC583CADFE9DEE780BE4C
:01126000008D
:1004CA00BB010CE58229F582E5833AF583E02250E7
:1004DA0006E92582F8E622BBFE06E92582F8E22231
:0D04EA00E58229F582E5833AF583E493224B
:1004F700BB010689828A83F0225002F722BBFE01E4
:02050700F322DD
:1005090075F008758200EF2FFFEE33FECD33CDCCA9
:1005190033CCC58233C5829BED9AEC99E58298402C
:100529000CF582EE9BFEED9AFDEC99FC0FD5F0D609
:10053900E4CEFBE4CDFAE4CCF9A88222B800C1B933
:100549000059BA002DEC8BF084CFCECDFCE5F0CB71
:10055900F97818EF2FFFEE33FEED33FDEC33FCEBAA
:1005690033FB10D703994004EB99FB0FD8E5E4F965
:10057900FA227818EF2FFFEE33FEED33FDEC33FC52
:10058900C933C910D7059BE99A4007EC9BFCE99A46
:10059900F90FD8E0E4C9FAE4CCFB2275F010EF2F8B
:1005A900FFEE33FEED33FDCC33CCC833C810D7078B
:1005B9009BEC9AE899400AED9BFDEC9AFCE899F8C6
:0E05C9000FD5F0DAE4CDFBE4CCFAE4C8F92259
:1005D700FAE2FB0808E2F925F0F218E2CA3AF22239
:0905E700EBF208EAF208E9F22245
:1005F000D083D082F8E4937012740193700DA3A39A
:1006000093F8740193F5828883E4737402936860AD
:06061000EFA3A3A380DFAD
:1011D600EFB40A07740D1211E1740A309811A89938
:1011E600B8130CC2983098FDA899C298B811F63079
:0711F60099FDC299F5992251
:00000001FF
